{
  "contractName": "HyToken",
  "abi": [
    {
      "inputs": [],
      "stateMutability": "nonpayable",
      "type": "constructor"
    },
    {
      "anonymous": false,
      "inputs": [
        {
          "indexed": true,
          "internalType": "address",
          "name": "owner",
          "type": "address"
        },
        {
          "indexed": true,
          "internalType": "address",
          "name": "spender",
          "type": "address"
        },
        {
          "indexed": false,
          "internalType": "uint256",
          "name": "value",
          "type": "uint256"
        }
      ],
      "name": "Approval",
      "type": "event"
    },
    {
      "anonymous": false,
      "inputs": [
        {
          "indexed": true,
          "internalType": "bytes32",
          "name": "role",
          "type": "bytes32"
        },
        {
          "indexed": true,
          "internalType": "bytes32",
          "name": "previousAdminRole",
          "type": "bytes32"
        },
        {
          "indexed": true,
          "internalType": "bytes32",
          "name": "newAdminRole",
          "type": "bytes32"
        }
      ],
      "name": "RoleAdminChanged",
      "type": "event"
    },
    {
      "anonymous": false,
      "inputs": [
        {
          "indexed": true,
          "internalType": "bytes32",
          "name": "role",
          "type": "bytes32"
        },
        {
          "indexed": true,
          "internalType": "address",
          "name": "account",
          "type": "address"
        },
        {
          "indexed": true,
          "internalType": "address",
          "name": "sender",
          "type": "address"
        }
      ],
      "name": "RoleGranted",
      "type": "event"
    },
    {
      "anonymous": false,
      "inputs": [
        {
          "indexed": true,
          "internalType": "bytes32",
          "name": "role",
          "type": "bytes32"
        },
        {
          "indexed": true,
          "internalType": "address",
          "name": "account",
          "type": "address"
        },
        {
          "indexed": true,
          "internalType": "address",
          "name": "sender",
          "type": "address"
        }
      ],
      "name": "RoleRevoked",
      "type": "event"
    },
    {
      "anonymous": false,
      "inputs": [
        {
          "indexed": true,
          "internalType": "address",
          "name": "from",
          "type": "address"
        },
        {
          "indexed": true,
          "internalType": "address",
          "name": "to",
          "type": "address"
        },
        {
          "indexed": false,
          "internalType": "uint256",
          "name": "value",
          "type": "uint256"
        }
      ],
      "name": "Transfer",
      "type": "event"
    },
    {
      "inputs": [],
      "name": "DEFAULT_ADMIN_ROLE",
      "outputs": [
        {
          "internalType": "bytes32",
          "name": "",
          "type": "bytes32"
        }
      ],
      "stateMutability": "view",
      "type": "function",
      "constant": true
    },
    {
      "inputs": [
        {
          "internalType": "address",
          "name": "owner",
          "type": "address"
        },
        {
          "internalType": "address",
          "name": "spender",
          "type": "address"
        }
      ],
      "name": "allowance",
      "outputs": [
        {
          "internalType": "uint256",
          "name": "",
          "type": "uint256"
        }
      ],
      "stateMutability": "view",
      "type": "function",
      "constant": true
    },
    {
      "inputs": [
        {
          "internalType": "address",
          "name": "spender",
          "type": "address"
        },
        {
          "internalType": "uint256",
          "name": "amount",
          "type": "uint256"
        }
      ],
      "name": "approve",
      "outputs": [
        {
          "internalType": "bool",
          "name": "",
          "type": "bool"
        }
      ],
      "stateMutability": "nonpayable",
      "type": "function"
    },
    {
      "inputs": [
        {
          "internalType": "address",
          "name": "account",
          "type": "address"
        }
      ],
      "name": "balanceOf",
      "outputs": [
        {
          "internalType": "uint256",
          "name": "",
          "type": "uint256"
        }
      ],
      "stateMutability": "view",
      "type": "function",
      "constant": true
    },
    {
      "inputs": [],
      "name": "decimals",
      "outputs": [
        {
          "internalType": "uint8",
          "name": "",
          "type": "uint8"
        }
      ],
      "stateMutability": "view",
      "type": "function",
      "constant": true
    },
    {
      "inputs": [
        {
          "internalType": "address",
          "name": "spender",
          "type": "address"
        },
        {
          "internalType": "uint256",
          "name": "subtractedValue",
          "type": "uint256"
        }
      ],
      "name": "decreaseAllowance",
      "outputs": [
        {
          "internalType": "bool",
          "name": "",
          "type": "bool"
        }
      ],
      "stateMutability": "nonpayable",
      "type": "function"
    },
    {
      "inputs": [
        {
          "internalType": "bytes32",
          "name": "role",
          "type": "bytes32"
        }
      ],
      "name": "getRoleAdmin",
      "outputs": [
        {
          "internalType": "bytes32",
          "name": "",
          "type": "bytes32"
        }
      ],
      "stateMutability": "view",
      "type": "function",
      "constant": true
    },
    {
      "inputs": [
        {
          "internalType": "bytes32",
          "name": "role",
          "type": "bytes32"
        },
        {
          "internalType": "address",
          "name": "account",
          "type": "address"
        }
      ],
      "name": "grantRole",
      "outputs": [],
      "stateMutability": "nonpayable",
      "type": "function"
    },
    {
      "inputs": [
        {
          "internalType": "bytes32",
          "name": "role",
          "type": "bytes32"
        },
        {
          "internalType": "address",
          "name": "account",
          "type": "address"
        }
      ],
      "name": "hasRole",
      "outputs": [
        {
          "internalType": "bool",
          "name": "",
          "type": "bool"
        }
      ],
      "stateMutability": "view",
      "type": "function",
      "constant": true
    },
    {
      "inputs": [
        {
          "internalType": "address",
          "name": "spender",
          "type": "address"
        },
        {
          "internalType": "uint256",
          "name": "addedValue",
          "type": "uint256"
        }
      ],
      "name": "increaseAllowance",
      "outputs": [
        {
          "internalType": "bool",
          "name": "",
          "type": "bool"
        }
      ],
      "stateMutability": "nonpayable",
      "type": "function"
    },
    {
      "inputs": [],
      "name": "name",
      "outputs": [
        {
          "internalType": "string",
          "name": "",
          "type": "string"
        }
      ],
      "stateMutability": "view",
      "type": "function",
      "constant": true
    },
    {
      "inputs": [
        {
          "internalType": "bytes32",
          "name": "role",
          "type": "bytes32"
        },
        {
          "internalType": "address",
          "name": "account",
          "type": "address"
        }
      ],
      "name": "renounceRole",
      "outputs": [],
      "stateMutability": "nonpayable",
      "type": "function"
    },
    {
      "inputs": [
        {
          "internalType": "bytes32",
          "name": "role",
          "type": "bytes32"
        },
        {
          "internalType": "address",
          "name": "account",
          "type": "address"
        }
      ],
      "name": "revokeRole",
      "outputs": [],
      "stateMutability": "nonpayable",
      "type": "function"
    },
    {
      "inputs": [
        {
          "internalType": "bytes4",
          "name": "interfaceId",
          "type": "bytes4"
        }
      ],
      "name": "supportsInterface",
      "outputs": [
        {
          "internalType": "bool",
          "name": "",
          "type": "bool"
        }
      ],
      "stateMutability": "view",
      "type": "function",
      "constant": true
    },
    {
      "inputs": [],
      "name": "symbol",
      "outputs": [
        {
          "internalType": "string",
          "name": "",
          "type": "string"
        }
      ],
      "stateMutability": "view",
      "type": "function",
      "constant": true
    },
    {
      "inputs": [],
      "name": "totalSupply",
      "outputs": [
        {
          "internalType": "uint256",
          "name": "",
          "type": "uint256"
        }
      ],
      "stateMutability": "view",
      "type": "function",
      "constant": true
    },
    {
      "inputs": [
        {
          "internalType": "address",
          "name": "recipient",
          "type": "address"
        },
        {
          "internalType": "uint256",
          "name": "amount",
          "type": "uint256"
        }
      ],
      "name": "transfer",
      "outputs": [
        {
          "internalType": "bool",
          "name": "",
          "type": "bool"
        }
      ],
      "stateMutability": "nonpayable",
      "type": "function"
    },
    {
      "inputs": [
        {
          "internalType": "address",
          "name": "sender",
          "type": "address"
        },
        {
          "internalType": "address",
          "name": "recipient",
          "type": "address"
        },
        {
          "internalType": "uint256",
          "name": "amount",
          "type": "uint256"
        }
      ],
      "name": "transferFrom",
      "outputs": [
        {
          "internalType": "bool",
          "name": "",
          "type": "bool"
        }
      ],
      "stateMutability": "nonpayable",
      "type": "function"
    },
    {
      "inputs": [
        {
          "internalType": "address",
          "name": "_account",
          "type": "address"
        },
        {
          "internalType": "uint256",
          "name": "_amount",
          "type": "uint256"
        }
      ],
      "name": "mint",
      "outputs": [],
      "stateMutability": "nonpayable",
      "type": "function"
    },
    {
      "inputs": [
        {
          "internalType": "address",
          "name": "_account",
          "type": "address"
        },
        {
          "internalType": "uint256",
          "name": "_amount",
          "type": "uint256"
        }
      ],
      "name": "burn",
      "outputs": [],
      "stateMutability": "nonpayable",
      "type": "function"
    }
  ],
  "bytecode": "0x60806040523480156200001157600080fd5b506040518060400160405280600781526020017f4879546f6b656e000000000000000000000000000000000000000000000000008152506040518060400160405280600381526020017f485954000000000000000000000000000000000000000000000000000000000081525081600390805190602001906200009692919062000265565b508060049080519060200190620000af92919062000265565b505050620000e47fa49807205ce4d355092ef5a8a18f56e8913cf4a201fbe287825b095693c2177533620000ea60201b60201c565b6200037a565b620000fc82826200010060201b60201c565b5050565b620001128282620001f260201b60201c565b620001ee5760016005600084815260200190815260200160002060000160008373ffffffffffffffffffffffffffffffffffffffff1673ffffffffffffffffffffffffffffffffffffffff16815260200190815260200160002060006101000a81548160ff021916908315150217905550620001936200025d60201b60201c565b73ffffffffffffffffffffffffffffffffffffffff168173ffffffffffffffffffffffffffffffffffffffff16837f2f8788117e7eff1d82e926ec794901d17c78024a50270940304540a733656f0d60405160405180910390a45b5050565b60006005600084815260200190815260200160002060000160008373ffffffffffffffffffffffffffffffffffffffff1673ffffffffffffffffffffffffffffffffffffffff16815260200190815260200160002060009054906101000a900460ff16905092915050565b600033905090565b828054620002739062000315565b90600052602060002090601f016020900481019282620002975760008555620002e3565b82601f10620002b257805160ff1916838001178555620002e3565b82800160010185558215620002e3579182015b82811115620002e2578251825591602001919060010190620002c5565b5b509050620002f29190620002f6565b5090565b5b8082111562000311576000816000905550600101620002f7565b5090565b600060028204905060018216806200032e57607f821691505b602082108114156200034557620003446200034b565b5b50919050565b7f4e487b7100000000000000000000000000000000000000000000000000000000600052602260045260246000fd5b6126e3806200038a6000396000f3fe608060405234801561001057600080fd5b506004361061012c5760003560e01c806340c10f19116100ad578063a217fddf11610071578063a217fddf14610369578063a457c2d714610387578063a9059cbb146103b7578063d547741f146103e7578063dd62ed3e146104035761012c565b806340c10f19146102b357806370a08231146102cf57806391d14854146102ff57806395d89b411461032f5780639dc29fac1461034d5761012c565b8063248a9ca3116100f4578063248a9ca3146101fd5780632f2ff15d1461022d578063313ce5671461024957806336568abe1461026757806339509351146102835761012c565b806301ffc9a71461013157806306fdde0314610161578063095ea7b31461017f57806318160ddd146101af57806323b872dd146101cd575b600080fd5b61014b60048036038101906101469190611a2f565b610433565b6040516101589190611d49565b60405180910390f35b6101696104ad565b6040516101769190611d7f565b60405180910390f35b61019960048036038101906101949190611982565b61053f565b6040516101a69190611d49565b60405180910390f35b6101b761055d565b6040516101c49190611f41565b60405180910390f35b6101e760048036038101906101e2919061192f565b610567565b6040516101f49190611d49565b60405180910390f35b610217600480360381019061021291906119c2565b61065f565b6040516102249190611d64565b60405180910390f35b610247600480360381019061024291906119ef565b61067f565b005b6102516106a8565b60405161025e9190611f5c565b60405180910390f35b610281600480360381019061027c91906119ef565b6106b1565b005b61029d60048036038101906102989190611982565b610734565b6040516102aa9190611d49565b60405180910390f35b6102cd60048036038101906102c89190611982565b6107e0565b005b6102e960048036038101906102e491906118c2565b610857565b6040516102f69190611f41565b60405180910390f35b610319600480360381019061031491906119ef565b61089f565b6040516103269190611d49565b60405180910390f35b61033761090a565b6040516103449190611d7f565b60405180910390f35b61036760048036038101906103629190611982565b61099c565b005b610371610a13565b60405161037e9190611d64565b60405180910390f35b6103a1600480360381019061039c9190611982565b610a1a565b6040516103ae9190611d49565b60405180910390f35b6103d160048036038101906103cc9190611982565b610b05565b6040516103de9190611d49565b60405180910390f35b61040160048036038101906103fc91906119ef565b610b23565b005b61041d600480360381019061041891906118ef565b610b4c565b60405161042a9190611f41565b60405180910390f35b60007f7965db0b000000000000000000000000000000000000000000000000000000007bffffffffffffffffffffffffffffffffffffffffffffffffffffffff1916827bffffffffffffffffffffffffffffffffffffffffffffffffffffffff191614806104a657506104a582610bd3565b5b9050919050565b6060600380546104bc9061216a565b80601f01602080910402602001604051908101604052809291908181526020018280546104e89061216a565b80156105355780601f1061050a57610100808354040283529160200191610535565b820191906000526020600020905b81548152906001019060200180831161051857829003601f168201915b5050505050905090565b600061055361054c610c3d565b8484610c45565b6001905092915050565b6000600254905090565b6000610574848484610e10565b6000600160008673ffffffffffffffffffffffffffffffffffffffff1673ffffffffffffffffffffffffffffffffffffffff16815260200190815260200160002060006105bf610c3d565b73ffffffffffffffffffffffffffffffffffffffff1673ffffffffffffffffffffffffffffffffffffffff1681526020019081526020016000205490508281101561063f576040517f08c379a000000000000000000000000000000000000000000000000000000000815260040161063690611e61565b60405180910390fd5b6106538561064b610c3d565b858403610c45565b60019150509392505050565b600060056000838152602001908152602001600020600101549050919050565b6106888261065f565b61069981610694610c3d565b611091565b6106a3838361112e565b505050565b60006012905090565b6106b9610c3d565b73ffffffffffffffffffffffffffffffffffffffff168173ffffffffffffffffffffffffffffffffffffffff1614610726576040517f08c379a000000000000000000000000000000000000000000000000000000000815260040161071d90611f01565b60405180910390fd5b610730828261120f565b5050565b60006107d6610741610c3d565b84846001600061074f610c3d565b73ffffffffffffffffffffffffffffffffffffffff1673ffffffffffffffffffffffffffffffffffffffff16815260200190815260200160002060008873ffffffffffffffffffffffffffffffffffffffff1673ffffffffffffffffffffffffffffffffffffffff168152602001908152602001600020546107d19190611f9e565b610c45565b6001905092915050565b61080a7fa49807205ce4d355092ef5a8a18f56e8913cf4a201fbe287825b095693c217753361089f565b610849576040517f08c379a000000000000000000000000000000000000000000000000000000000815260040161084090611da1565b60405180910390fd5b61085382826112f1565b5050565b60008060008373ffffffffffffffffffffffffffffffffffffffff1673ffffffffffffffffffffffffffffffffffffffff168152602001908152602001600020549050919050565b60006005600084815260200190815260200160002060000160008373ffffffffffffffffffffffffffffffffffffffff1673ffffffffffffffffffffffffffffffffffffffff16815260200190815260200160002060009054906101000a900460ff16905092915050565b6060600480546109199061216a565b80601f01602080910402602001604051908101604052809291908181526020018280546109459061216a565b80156109925780601f1061096757610100808354040283529160200191610992565b820191906000526020600020905b81548152906001019060200180831161097557829003601f168201915b5050505050905090565b6109c67fa49807205ce4d355092ef5a8a18f56e8913cf4a201fbe287825b095693c217753361089f565b610a05576040517f08c379a00000000000000000000000000000000000000000000000000000000081526004016109fc90611da1565b60405180910390fd5b610a0f8282611451565b5050565b6000801b81565b60008060016000610a29610c3d565b73ffffffffffffffffffffffffffffffffffffffff1673ffffffffffffffffffffffffffffffffffffffff16815260200190815260200160002060008573ffffffffffffffffffffffffffffffffffffffff1673ffffffffffffffffffffffffffffffffffffffff16815260200190815260200160002054905082811015610ae6576040517f08c379a0000000000000000000000000000000000000000000000000000000008152600401610add90611ee1565b60405180910390fd5b610afa610af1610c3d565b85858403610c45565b600191505092915050565b6000610b19610b12610c3d565b8484610e10565b6001905092915050565b610b2c8261065f565b610b3d81610b38610c3d565b611091565b610b47838361120f565b505050565b6000600160008473ffffffffffffffffffffffffffffffffffffffff1673ffffffffffffffffffffffffffffffffffffffff16815260200190815260200160002060008373ffffffffffffffffffffffffffffffffffffffff1673ffffffffffffffffffffffffffffffffffffffff16815260200190815260200160002054905092915050565b60007f01ffc9a7000000000000000000000000000000000000000000000000000000007bffffffffffffffffffffffffffffffffffffffffffffffffffffffff1916827bffffffffffffffffffffffffffffffffffffffffffffffffffffffff1916149050919050565b600033905090565b600073ffffffffffffffffffffffffffffffffffffffff168373ffffffffffffffffffffffffffffffffffffffff161415610cb5576040517f08c379a0000000000000000000000000000000000000000000000000000000008152600401610cac90611ec1565b60405180910390fd5b600073ffffffffffffffffffffffffffffffffffffffff168273ffffffffffffffffffffffffffffffffffffffff161415610d25576040517f08c379a0000000000000000000000000000000000000000000000000000000008152600401610d1c90611e21565b60405180910390fd5b80600160008573ffffffffffffffffffffffffffffffffffffffff1673ffffffffffffffffffffffffffffffffffffffff16815260200190815260200160002060008473ffffffffffffffffffffffffffffffffffffffff1673ffffffffffffffffffffffffffffffffffffffff168152602001908152602001600020819055508173ffffffffffffffffffffffffffffffffffffffff168373ffffffffffffffffffffffffffffffffffffffff167f8c5be1e5ebec7d5bd14f71427d1e84f3dd0314c0f7b2291e5b200ac8c7c3b92583604051610e039190611f41565b60405180910390a3505050565b600073ffffffffffffffffffffffffffffffffffffffff168373ffffffffffffffffffffffffffffffffffffffff161415610e80576040517f08c379a0000000000000000000000000000000000000000000000000000000008152600401610e7790611ea1565b60405180910390fd5b600073ffffffffffffffffffffffffffffffffffffffff168273ffffffffffffffffffffffffffffffffffffffff161415610ef0576040517f08c379a0000000000000000000000000000000000000000000000000000000008152600401610ee790611de1565b60405180910390fd5b610efb838383611628565b60008060008573ffffffffffffffffffffffffffffffffffffffff1673ffffffffffffffffffffffffffffffffffffffff16815260200190815260200160002054905081811015610f81576040517f08c379a0000000000000000000000000000000000000000000000000000000008152600401610f7890611e41565b60405180910390fd5b8181036000808673ffffffffffffffffffffffffffffffffffffffff1673ffffffffffffffffffffffffffffffffffffffff16815260200190815260200160002081905550816000808573ffffffffffffffffffffffffffffffffffffffff1673ffffffffffffffffffffffffffffffffffffffff16815260200190815260200160002060008282546110149190611f9e565b925050819055508273ffffffffffffffffffffffffffffffffffffffff168473ffffffffffffffffffffffffffffffffffffffff167fddf252ad1be2c89b69c2b068fc378daa952ba7f163c4a11628f55a4df523b3ef846040516110789190611f41565b60405180910390a361108b84848461162d565b50505050565b61109b828261089f565b61112a576110c08173ffffffffffffffffffffffffffffffffffffffff166014611632565b6110ce8360001c6020611632565b6040516020016110df929190611d0f565b6040516020818303038152906040526040517f08c379a00000000000000000000000000000000000000000000000000000000081526004016111219190611d7f565b60405180910390fd5b5050565b611138828261089f565b61120b5760016005600084815260200190815260200160002060000160008373ffffffffffffffffffffffffffffffffffffffff1673ffffffffffffffffffffffffffffffffffffffff16815260200190815260200160002060006101000a81548160ff0219169083151502179055506111b0610c3d565b73ffffffffffffffffffffffffffffffffffffffff168173ffffffffffffffffffffffffffffffffffffffff16837f2f8788117e7eff1d82e926ec794901d17c78024a50270940304540a733656f0d60405160405180910390a45b5050565b611219828261089f565b156112ed5760006005600084815260200190815260200160002060000160008373ffffffffffffffffffffffffffffffffffffffff1673ffffffffffffffffffffffffffffffffffffffff16815260200190815260200160002060006101000a81548160ff021916908315150217905550611292610c3d565b73ffffffffffffffffffffffffffffffffffffffff168173ffffffffffffffffffffffffffffffffffffffff16837ff6391f5c32d9c69d2a47ea670b442974b53935d1edc7fd64eb21e047a839171b60405160405180910390a45b5050565b600073ffffffffffffffffffffffffffffffffffffffff168273ffffffffffffffffffffffffffffffffffffffff161415611361576040517f08c379a000000000000000000000000000000000000000000000000000000000815260040161135890611f21565b60405180910390fd5b61136d60008383611628565b806002600082825461137f9190611f9e565b92505081905550806000808473ffffffffffffffffffffffffffffffffffffffff1673ffffffffffffffffffffffffffffffffffffffff16815260200190815260200160002060008282546113d49190611f9e565b925050819055508173ffffffffffffffffffffffffffffffffffffffff16600073ffffffffffffffffffffffffffffffffffffffff167fddf252ad1be2c89b69c2b068fc378daa952ba7f163c4a11628f55a4df523b3ef836040516114399190611f41565b60405180910390a361144d6000838361162d565b5050565b600073ffffffffffffffffffffffffffffffffffffffff168273ffffffffffffffffffffffffffffffffffffffff1614156114c1576040517f08c379a00000000000000000000000000000000000000000000000000000000081526004016114b890611e81565b60405180910390fd5b6114cd82600083611628565b60008060008473ffffffffffffffffffffffffffffffffffffffff1673ffffffffffffffffffffffffffffffffffffffff16815260200190815260200160002054905081811015611553576040517f08c379a000000000000000000000000000000000000000000000000000000000815260040161154a90611e01565b60405180910390fd5b8181036000808573ffffffffffffffffffffffffffffffffffffffff1673ffffffffffffffffffffffffffffffffffffffff1681526020019081526020016000208190555081600260008282546115aa919061204e565b92505081905550600073ffffffffffffffffffffffffffffffffffffffff168373ffffffffffffffffffffffffffffffffffffffff167fddf252ad1be2c89b69c2b068fc378daa952ba7f163c4a11628f55a4df523b3ef8460405161160f9190611f41565b60405180910390a36116238360008461162d565b505050565b505050565b505050565b6060600060028360026116459190611ff4565b61164f9190611f9e565b67ffffffffffffffff81111561166857611667612229565b5b6040519080825280601f01601f19166020018201604052801561169a5781602001600182028036833780820191505090505b5090507f3000000000000000000000000000000000000000000000000000000000000000816000815181106116d2576116d16121fa565b5b60200101907effffffffffffffffffffffffffffffffffffffffffffffffffffffffffffff1916908160001a9053507f780000000000000000000000000000000000000000000000000000000000000081600181518110611736576117356121fa565b5b60200101907effffffffffffffffffffffffffffffffffffffffffffffffffffffffffffff1916908160001a905350600060018460026117769190611ff4565b6117809190611f9e565b90505b6001811115611820577f3031323334353637383961626364656600000000000000000000000000000000600f8616601081106117c2576117c16121fa565b5b1a60f81b8282815181106117d9576117d86121fa565b5b60200101907effffffffffffffffffffffffffffffffffffffffffffffffffffffffffffff1916908160001a905350600485901c94508061181990612140565b9050611783565b5060008414611864576040517f08c379a000000000000000000000000000000000000000000000000000000000815260040161185b90611dc1565b60405180910390fd5b8091505092915050565b60008135905061187d81612651565b92915050565b60008135905061189281612668565b92915050565b6000813590506118a78161267f565b92915050565b6000813590506118bc81612696565b92915050565b6000602082840312156118d8576118d7612258565b5b60006118e68482850161186e565b91505092915050565b6000806040838503121561190657611905612258565b5b60006119148582860161186e565b92505060206119258582860161186e565b9150509250929050565b60008060006060848603121561194857611947612258565b5b60006119568682870161186e565b93505060206119678682870161186e565b9250506040611978868287016118ad565b9150509250925092565b6000806040838503121561199957611998612258565b5b60006119a78582860161186e565b92505060206119b8858286016118ad565b9150509250929050565b6000602082840312156119d8576119d7612258565b5b60006119e684828501611883565b91505092915050565b60008060408385031215611a0657611a05612258565b5b6000611a1485828601611883565b9250506020611a258582860161186e565b9150509250929050565b600060208284031215611a4557611a44612258565b5b6000611a5384828501611898565b91505092915050565b611a6581612094565b82525050565b611a74816120a0565b82525050565b6000611a8582611f77565b611a8f8185611f82565b9350611a9f81856020860161210d565b611aa88161225d565b840191505092915050565b6000611abe82611f77565b611ac88185611f93565b9350611ad881856020860161210d565b80840191505092915050565b6000611af1601583611f82565b9150611afc8261226e565b602082019050919050565b6000611b14602083611f82565b9150611b1f82612297565b602082019050919050565b6000611b37602383611f82565b9150611b42826122c0565b604082019050919050565b6000611b5a602283611f82565b9150611b658261230f565b604082019050919050565b6000611b7d602283611f82565b9150611b888261235e565b604082019050919050565b6000611ba0602683611f82565b9150611bab826123ad565b604082019050919050565b6000611bc3602883611f82565b9150611bce826123fc565b604082019050919050565b6000611be6602183611f82565b9150611bf18261244b565b604082019050919050565b6000611c09602583611f82565b9150611c148261249a565b604082019050919050565b6000611c2c602483611f82565b9150611c37826124e9565b604082019050919050565b6000611c4f601783611f93565b9150611c5a82612538565b601782019050919050565b6000611c72602583611f82565b9150611c7d82612561565b604082019050919050565b6000611c95601183611f93565b9150611ca0826125b0565b601182019050919050565b6000611cb8602f83611f82565b9150611cc3826125d9565b604082019050919050565b6000611cdb601f83611f82565b9150611ce682612628565b602082019050919050565b611cfa816120f6565b82525050565b611d0981612100565b82525050565b6000611d1a82611c42565b9150611d268285611ab3565b9150611d3182611c88565b9150611d3d8284611ab3565b91508190509392505050565b6000602082019050611d5e6000830184611a5c565b92915050565b6000602082019050611d796000830184611a6b565b92915050565b60006020820190508181036000830152611d998184611a7a565b905092915050565b60006020820190508181036000830152611dba81611ae4565b9050919050565b60006020820190508181036000830152611dda81611b07565b9050919050565b60006020820190508181036000830152611dfa81611b2a565b9050919050565b60006020820190508181036000830152611e1a81611b4d565b9050919050565b60006020820190508181036000830152611e3a81611b70565b9050919050565b60006020820190508181036000830152611e5a81611b93565b9050919050565b60006020820190508181036000830152611e7a81611bb6565b9050919050565b60006020820190508181036000830152611e9a81611bd9565b9050919050565b60006020820190508181036000830152611eba81611bfc565b9050919050565b60006020820190508181036000830152611eda81611c1f565b9050919050565b60006020820190508181036000830152611efa81611c65565b9050919050565b60006020820190508181036000830152611f1a81611cab565b9050919050565b60006020820190508181036000830152611f3a81611cce565b9050919050565b6000602082019050611f566000830184611cf1565b92915050565b6000602082019050611f716000830184611d00565b92915050565b600081519050919050565b600082825260208201905092915050565b600081905092915050565b6000611fa9826120f6565b9150611fb4836120f6565b9250827fffffffffffffffffffffffffffffffffffffffffffffffffffffffffffffffff03821115611fe957611fe861219c565b5b828201905092915050565b6000611fff826120f6565b915061200a836120f6565b9250817fffffffffffffffffffffffffffffffffffffffffffffffffffffffffffffffff04831182151516156120435761204261219c565b5b828202905092915050565b6000612059826120f6565b9150612064836120f6565b9250828210156120775761207661219c565b5b828203905092915050565b600061208d826120d6565b9050919050565b60008115159050919050565b6000819050919050565b60007fffffffff0000000000000000000000000000000000000000000000000000000082169050919050565b600073ffffffffffffffffffffffffffffffffffffffff82169050919050565b6000819050919050565b600060ff82169050919050565b60005b8381101561212b578082015181840152602081019050612110565b8381111561213a576000848401525b50505050565b600061214b826120f6565b9150600082141561215f5761215e61219c565b5b600182039050919050565b6000600282049050600182168061218257607f821691505b60208210811415612196576121956121cb565b5b50919050565b7f4e487b7100000000000000000000000000000000000000000000000000000000600052601160045260246000fd5b7f4e487b7100000000000000000000000000000000000000000000000000000000600052602260045260246000fd5b7f4e487b7100000000000000000000000000000000000000000000000000000000600052603260045260246000fd5b7f4e487b7100000000000000000000000000000000000000000000000000000000600052604160045260246000fd5b600080fd5b6000601f19601f8301169050919050565b7f43616c6c6572206973206e6f7420612061646d696e0000000000000000000000600082015250565b7f537472696e67733a20686578206c656e67746820696e73756666696369656e74600082015250565b7f45524332303a207472616e7366657220746f20746865207a65726f206164647260008201527f6573730000000000000000000000000000000000000000000000000000000000602082015250565b7f45524332303a206275726e20616d6f756e7420657863656564732062616c616e60008201527f6365000000000000000000000000000000000000000000000000000000000000602082015250565b7f45524332303a20617070726f766520746f20746865207a65726f20616464726560008201527f7373000000000000000000000000000000000000000000000000000000000000602082015250565b7f45524332303a207472616e7366657220616d6f756e742065786365656473206260008201527f616c616e63650000000000000000000000000000000000000000000000000000602082015250565b7f45524332303a207472616e7366657220616d6f756e742065786365656473206160008201527f6c6c6f77616e6365000000000000000000000000000000000000000000000000602082015250565b7f45524332303a206275726e2066726f6d20746865207a65726f2061646472657360008201527f7300000000000000000000000000000000000000000000000000000000000000602082015250565b7f45524332303a207472616e736665722066726f6d20746865207a65726f20616460008201527f6472657373000000000000000000000000000000000000000000000000000000602082015250565b7f45524332303a20617070726f76652066726f6d20746865207a65726f2061646460008201527f7265737300000000000000000000000000000000000000000000000000000000602082015250565b7f416363657373436f6e74726f6c3a206163636f756e7420000000000000000000600082015250565b7f45524332303a2064656372656173656420616c6c6f77616e63652062656c6f7760008201527f207a65726f000000000000000000000000000000000000000000000000000000602082015250565b7f206973206d697373696e6720726f6c6520000000000000000000000000000000600082015250565b7f416363657373436f6e74726f6c3a2063616e206f6e6c792072656e6f756e636560008201527f20726f6c657320666f722073656c660000000000000000000000000000000000602082015250565b7f45524332303a206d696e7420746f20746865207a65726f206164647265737300600082015250565b61265a81612082565b811461266557600080fd5b50565b612671816120a0565b811461267c57600080fd5b50565b612688816120aa565b811461269357600080fd5b50565b61269f816120f6565b81146126aa57600080fd5b5056fea2646970667358221220689519ab3def44c07e629cbd3121ce2cb2969068a1126c55950abb550ca5678564736f6c63430008070033",
  "immutableReferences": {},
  "source": "// SPDX-License-Identifier: MIT\npragma solidity >=0.6.8 <0.9.0;\n\nimport \"@openzeppelin/contracts/token/ERC20/ERC20.sol\";\nimport \"@openzeppelin/contracts/access/AccessControl.sol\";\n\ncontract HyToken is ERC20, AccessControl {\n  bytes32 private constant ADMIN_ROLE = keccak256(\"ADMIN_ROLE\");\n\n  constructor() ERC20(\"HyToken\", \"HYT\") {\n    _setupRole(ADMIN_ROLE, msg.sender);\n  }\n\n  function mint(address _account, uint256 _amount) external {\n    require(hasRole(ADMIN_ROLE, msg.sender), \"Caller is not a admin\");\n    _mint(_account, _amount);\n  }\n\n  function burn(address _account, uint256 _amount) external {\n    require(hasRole(ADMIN_ROLE, msg.sender), \"Caller is not a admin\");\n    _burn(_account, _amount);\n  }\n}\n",
  "sourcePath": "/Users/hy/work/erc20-token/contracts/HyToken.sol",
  "compiler": {
    "name": "solc",
    "version": "0.8.7+commit.e28d00a7.Emscripten.clang"
  },
  "schemaVersion": "3.4.3",
  "updatedAt": "2021-12-30T14:18:40.911Z",
  "networkType": "ethereum",
  "devdoc": {
    "kind": "dev",
    "methods": {
      "allowance(address,address)": {
        "details": "See {IERC20-allowance}."
      },
      "approve(address,uint256)": {
        "details": "See {IERC20-approve}. Requirements: - `spender` cannot be the zero address."
      },
      "balanceOf(address)": {
        "details": "See {IERC20-balanceOf}."
      },
      "decimals()": {
        "details": "Returns the number of decimals used to get its user representation. For example, if `decimals` equals `2`, a balance of `505` tokens should be displayed to a user as `5.05` (`505 / 10 ** 2`). Tokens usually opt for a value of 18, imitating the relationship between Ether and Wei. This is the value {ERC20} uses, unless this function is overridden; NOTE: This information is only used for _display_ purposes: it in no way affects any of the arithmetic of the contract, including {IERC20-balanceOf} and {IERC20-transfer}."
      },
      "decreaseAllowance(address,uint256)": {
        "details": "Atomically decreases the allowance granted to `spender` by the caller. This is an alternative to {approve} that can be used as a mitigation for problems described in {IERC20-approve}. Emits an {Approval} event indicating the updated allowance. Requirements: - `spender` cannot be the zero address. - `spender` must have allowance for the caller of at least `subtractedValue`."
      },
      "getRoleAdmin(bytes32)": {
        "details": "Returns the admin role that controls `role`. See {grantRole} and {revokeRole}. To change a role's admin, use {_setRoleAdmin}."
      },
      "grantRole(bytes32,address)": {
        "details": "Grants `role` to `account`. If `account` had not been already granted `role`, emits a {RoleGranted} event. Requirements: - the caller must have ``role``'s admin role."
      },
      "hasRole(bytes32,address)": {
        "details": "Returns `true` if `account` has been granted `role`."
      },
      "increaseAllowance(address,uint256)": {
        "details": "Atomically increases the allowance granted to `spender` by the caller. This is an alternative to {approve} that can be used as a mitigation for problems described in {IERC20-approve}. Emits an {Approval} event indicating the updated allowance. Requirements: - `spender` cannot be the zero address."
      },
      "name()": {
        "details": "Returns the name of the token."
      },
      "renounceRole(bytes32,address)": {
        "details": "Revokes `role` from the calling account. Roles are often managed via {grantRole} and {revokeRole}: this function's purpose is to provide a mechanism for accounts to lose their privileges if they are compromised (such as when a trusted device is misplaced). If the calling account had been granted `role`, emits a {RoleRevoked} event. Requirements: - the caller must be `account`."
      },
      "revokeRole(bytes32,address)": {
        "details": "Revokes `role` from `account`. If `account` had been granted `role`, emits a {RoleRevoked} event. Requirements: - the caller must have ``role``'s admin role."
      },
      "supportsInterface(bytes4)": {
        "details": "See {IERC165-supportsInterface}."
      },
      "symbol()": {
        "details": "Returns the symbol of the token, usually a shorter version of the name."
      },
      "totalSupply()": {
        "details": "See {IERC20-totalSupply}."
      },
      "transfer(address,uint256)": {
        "details": "See {IERC20-transfer}. Requirements: - `recipient` cannot be the zero address. - the caller must have a balance of at least `amount`."
      },
      "transferFrom(address,address,uint256)": {
        "details": "See {IERC20-transferFrom}. Emits an {Approval} event indicating the updated allowance. This is not required by the EIP. See the note at the beginning of {ERC20}. Requirements: - `sender` and `recipient` cannot be the zero address. - `sender` must have a balance of at least `amount`. - the caller must have allowance for ``sender``'s tokens of at least `amount`."
      }
    },
    "version": 1
  },
  "userdoc": {
    "kind": "user",
    "methods": {},
    "version": 1
  }
}