{
  "contractName": "HyToken",
  "abi": [
    {
      "inputs": [],
      "stateMutability": "nonpayable",
      "type": "constructor"
    },
    {
      "anonymous": false,
      "inputs": [
        {
          "indexed": true,
          "internalType": "address",
          "name": "owner",
          "type": "address"
        },
        {
          "indexed": true,
          "internalType": "address",
          "name": "spender",
          "type": "address"
        },
        {
          "indexed": false,
          "internalType": "uint256",
          "name": "value",
          "type": "uint256"
        }
      ],
      "name": "Approval",
      "type": "event"
    },
    {
      "anonymous": false,
      "inputs": [
        {
          "indexed": true,
          "internalType": "bytes32",
          "name": "role",
          "type": "bytes32"
        },
        {
          "indexed": true,
          "internalType": "bytes32",
          "name": "previousAdminRole",
          "type": "bytes32"
        },
        {
          "indexed": true,
          "internalType": "bytes32",
          "name": "newAdminRole",
          "type": "bytes32"
        }
      ],
      "name": "RoleAdminChanged",
      "type": "event"
    },
    {
      "anonymous": false,
      "inputs": [
        {
          "indexed": true,
          "internalType": "bytes32",
          "name": "role",
          "type": "bytes32"
        },
        {
          "indexed": true,
          "internalType": "address",
          "name": "account",
          "type": "address"
        },
        {
          "indexed": true,
          "internalType": "address",
          "name": "sender",
          "type": "address"
        }
      ],
      "name": "RoleGranted",
      "type": "event"
    },
    {
      "anonymous": false,
      "inputs": [
        {
          "indexed": true,
          "internalType": "bytes32",
          "name": "role",
          "type": "bytes32"
        },
        {
          "indexed": true,
          "internalType": "address",
          "name": "account",
          "type": "address"
        },
        {
          "indexed": true,
          "internalType": "address",
          "name": "sender",
          "type": "address"
        }
      ],
      "name": "RoleRevoked",
      "type": "event"
    },
    {
      "anonymous": false,
      "inputs": [
        {
          "indexed": true,
          "internalType": "address",
          "name": "from",
          "type": "address"
        },
        {
          "indexed": true,
          "internalType": "address",
          "name": "to",
          "type": "address"
        },
        {
          "indexed": false,
          "internalType": "uint256",
          "name": "value",
          "type": "uint256"
        }
      ],
      "name": "Transfer",
      "type": "event"
    },
    {
      "inputs": [],
      "name": "DEFAULT_ADMIN_ROLE",
      "outputs": [
        {
          "internalType": "bytes32",
          "name": "",
          "type": "bytes32"
        }
      ],
      "stateMutability": "view",
      "type": "function"
    },
    {
      "inputs": [
        {
          "internalType": "address",
          "name": "owner",
          "type": "address"
        },
        {
          "internalType": "address",
          "name": "spender",
          "type": "address"
        }
      ],
      "name": "allowance",
      "outputs": [
        {
          "internalType": "uint256",
          "name": "",
          "type": "uint256"
        }
      ],
      "stateMutability": "view",
      "type": "function"
    },
    {
      "inputs": [
        {
          "internalType": "address",
          "name": "spender",
          "type": "address"
        },
        {
          "internalType": "uint256",
          "name": "amount",
          "type": "uint256"
        }
      ],
      "name": "approve",
      "outputs": [
        {
          "internalType": "bool",
          "name": "",
          "type": "bool"
        }
      ],
      "stateMutability": "nonpayable",
      "type": "function"
    },
    {
      "inputs": [
        {
          "internalType": "address",
          "name": "account",
          "type": "address"
        }
      ],
      "name": "balanceOf",
      "outputs": [
        {
          "internalType": "uint256",
          "name": "",
          "type": "uint256"
        }
      ],
      "stateMutability": "view",
      "type": "function"
    },
    {
      "inputs": [],
      "name": "decimals",
      "outputs": [
        {
          "internalType": "uint8",
          "name": "",
          "type": "uint8"
        }
      ],
      "stateMutability": "view",
      "type": "function"
    },
    {
      "inputs": [
        {
          "internalType": "address",
          "name": "spender",
          "type": "address"
        },
        {
          "internalType": "uint256",
          "name": "subtractedValue",
          "type": "uint256"
        }
      ],
      "name": "decreaseAllowance",
      "outputs": [
        {
          "internalType": "bool",
          "name": "",
          "type": "bool"
        }
      ],
      "stateMutability": "nonpayable",
      "type": "function"
    },
    {
      "inputs": [
        {
          "internalType": "bytes32",
          "name": "role",
          "type": "bytes32"
        }
      ],
      "name": "getRoleAdmin",
      "outputs": [
        {
          "internalType": "bytes32",
          "name": "",
          "type": "bytes32"
        }
      ],
      "stateMutability": "view",
      "type": "function"
    },
    {
      "inputs": [
        {
          "internalType": "bytes32",
          "name": "role",
          "type": "bytes32"
        },
        {
          "internalType": "address",
          "name": "account",
          "type": "address"
        }
      ],
      "name": "grantRole",
      "outputs": [],
      "stateMutability": "nonpayable",
      "type": "function"
    },
    {
      "inputs": [
        {
          "internalType": "bytes32",
          "name": "role",
          "type": "bytes32"
        },
        {
          "internalType": "address",
          "name": "account",
          "type": "address"
        }
      ],
      "name": "hasRole",
      "outputs": [
        {
          "internalType": "bool",
          "name": "",
          "type": "bool"
        }
      ],
      "stateMutability": "view",
      "type": "function"
    },
    {
      "inputs": [
        {
          "internalType": "address",
          "name": "spender",
          "type": "address"
        },
        {
          "internalType": "uint256",
          "name": "addedValue",
          "type": "uint256"
        }
      ],
      "name": "increaseAllowance",
      "outputs": [
        {
          "internalType": "bool",
          "name": "",
          "type": "bool"
        }
      ],
      "stateMutability": "nonpayable",
      "type": "function"
    },
    {
      "inputs": [],
      "name": "name",
      "outputs": [
        {
          "internalType": "string",
          "name": "",
          "type": "string"
        }
      ],
      "stateMutability": "view",
      "type": "function"
    },
    {
      "inputs": [
        {
          "internalType": "bytes32",
          "name": "role",
          "type": "bytes32"
        },
        {
          "internalType": "address",
          "name": "account",
          "type": "address"
        }
      ],
      "name": "renounceRole",
      "outputs": [],
      "stateMutability": "nonpayable",
      "type": "function"
    },
    {
      "inputs": [
        {
          "internalType": "bytes32",
          "name": "role",
          "type": "bytes32"
        },
        {
          "internalType": "address",
          "name": "account",
          "type": "address"
        }
      ],
      "name": "revokeRole",
      "outputs": [],
      "stateMutability": "nonpayable",
      "type": "function"
    },
    {
      "inputs": [
        {
          "internalType": "bytes4",
          "name": "interfaceId",
          "type": "bytes4"
        }
      ],
      "name": "supportsInterface",
      "outputs": [
        {
          "internalType": "bool",
          "name": "",
          "type": "bool"
        }
      ],
      "stateMutability": "view",
      "type": "function"
    },
    {
      "inputs": [],
      "name": "symbol",
      "outputs": [
        {
          "internalType": "string",
          "name": "",
          "type": "string"
        }
      ],
      "stateMutability": "view",
      "type": "function"
    },
    {
      "inputs": [],
      "name": "totalSupply",
      "outputs": [
        {
          "internalType": "uint256",
          "name": "",
          "type": "uint256"
        }
      ],
      "stateMutability": "view",
      "type": "function"
    },
    {
      "inputs": [
        {
          "internalType": "address",
          "name": "to",
          "type": "address"
        },
        {
          "internalType": "uint256",
          "name": "amount",
          "type": "uint256"
        }
      ],
      "name": "transfer",
      "outputs": [
        {
          "internalType": "bool",
          "name": "",
          "type": "bool"
        }
      ],
      "stateMutability": "nonpayable",
      "type": "function"
    },
    {
      "inputs": [
        {
          "internalType": "address",
          "name": "from",
          "type": "address"
        },
        {
          "internalType": "address",
          "name": "to",
          "type": "address"
        },
        {
          "internalType": "uint256",
          "name": "amount",
          "type": "uint256"
        }
      ],
      "name": "transferFrom",
      "outputs": [
        {
          "internalType": "bool",
          "name": "",
          "type": "bool"
        }
      ],
      "stateMutability": "nonpayable",
      "type": "function"
    },
    {
      "inputs": [
        {
          "internalType": "address",
          "name": "_account",
          "type": "address"
        },
        {
          "internalType": "uint256",
          "name": "_amount",
          "type": "uint256"
        }
      ],
      "name": "mint",
      "outputs": [],
      "stateMutability": "nonpayable",
      "type": "function"
    },
    {
      "inputs": [
        {
          "internalType": "address",
          "name": "_account",
          "type": "address"
        },
        {
          "internalType": "uint256",
          "name": "_amount",
          "type": "uint256"
        }
      ],
      "name": "burn",
      "outputs": [],
      "stateMutability": "nonpayable",
      "type": "function"
    }
  ],
  "bytecode": "0x60806040523480156200001157600080fd5b506040518060400160405280600781526020017f4879546f6b656e000000000000000000000000000000000000000000000000008152506040518060400160405280600381526020017f485954000000000000000000000000000000000000000000000000000000000081525081600390805190602001906200009692919062000265565b508060049080519060200190620000af92919062000265565b505050620000e47fa49807205ce4d355092ef5a8a18f56e8913cf4a201fbe287825b095693c2177533620000ea60201b60201c565b6200037a565b620000fc82826200010060201b60201c565b5050565b620001128282620001f260201b60201c565b620001ee5760016005600084815260200190815260200160002060000160008373ffffffffffffffffffffffffffffffffffffffff1673ffffffffffffffffffffffffffffffffffffffff16815260200190815260200160002060006101000a81548160ff021916908315150217905550620001936200025d60201b60201c565b73ffffffffffffffffffffffffffffffffffffffff168173ffffffffffffffffffffffffffffffffffffffff16837f2f8788117e7eff1d82e926ec794901d17c78024a50270940304540a733656f0d60405160405180910390a45b5050565b60006005600084815260200190815260200160002060000160008373ffffffffffffffffffffffffffffffffffffffff1673ffffffffffffffffffffffffffffffffffffffff16815260200190815260200160002060009054906101000a900460ff16905092915050565b600033905090565b828054620002739062000344565b90600052602060002090601f016020900481019282620002975760008555620002e3565b82601f10620002b257805160ff1916838001178555620002e3565b82800160010185558215620002e3579182015b82811115620002e2578251825591602001919060010190620002c5565b5b509050620002f29190620002f6565b5090565b5b8082111562000311576000816000905550600101620002f7565b5090565b7f4e487b7100000000000000000000000000000000000000000000000000000000600052602260045260246000fd5b600060028204905060018216806200035d57607f821691505b6020821081141562000374576200037362000315565b5b50919050565b612687806200038a6000396000f3fe608060405234801561001057600080fd5b506004361061012c5760003560e01c806340c10f19116100ad578063a217fddf11610071578063a217fddf14610369578063a457c2d714610387578063a9059cbb146103b7578063d547741f146103e7578063dd62ed3e146104035761012c565b806340c10f19146102b357806370a08231146102cf57806391d14854146102ff57806395d89b411461032f5780639dc29fac1461034d5761012c565b8063248a9ca3116100f4578063248a9ca3146101fd5780632f2ff15d1461022d578063313ce5671461024957806336568abe1461026757806339509351146102835761012c565b806301ffc9a71461013157806306fdde0314610161578063095ea7b31461017f57806318160ddd146101af57806323b872dd146101cd575b600080fd5b61014b60048036038101906101469190611895565b610433565b60405161015891906118dd565b60405180910390f35b6101696104ad565b6040516101769190611991565b60405180910390f35b61019960048036038101906101949190611a47565b61053f565b6040516101a691906118dd565b60405180910390f35b6101b7610562565b6040516101c49190611a96565b60405180910390f35b6101e760048036038101906101e29190611ab1565b61056c565b6040516101f491906118dd565b60405180910390f35b61021760048036038101906102129190611b3a565b61059b565b6040516102249190611b76565b60405180910390f35b61024760048036038101906102429190611b91565b6105bb565b005b6102516105e4565b60405161025e9190611bed565b60405180910390f35b610281600480360381019061027c9190611b91565b6105ed565b005b61029d60048036038101906102989190611a47565b610670565b6040516102aa91906118dd565b60405180910390f35b6102cd60048036038101906102c89190611a47565b61071a565b005b6102e960048036038101906102e49190611c08565b610791565b6040516102f69190611a96565b60405180910390f35b61031960048036038101906103149190611b91565b6107d9565b60405161032691906118dd565b60405180910390f35b610337610844565b6040516103449190611991565b60405180910390f35b61036760048036038101906103629190611a47565b6108d6565b005b61037161094d565b60405161037e9190611b76565b60405180910390f35b6103a1600480360381019061039c9190611a47565b610954565b6040516103ae91906118dd565b60405180910390f35b6103d160048036038101906103cc9190611a47565b610a3e565b6040516103de91906118dd565b60405180910390f35b61040160048036038101906103fc9190611b91565b610a61565b005b61041d60048036038101906104189190611c35565b610a8a565b60405161042a9190611a96565b60405180910390f35b60007f7965db0b000000000000000000000000000000000000000000000000000000007bffffffffffffffffffffffffffffffffffffffffffffffffffffffff1916827bffffffffffffffffffffffffffffffffffffffffffffffffffffffff191614806104a657506104a582610b11565b5b9050919050565b6060600380546104bc90611ca4565b80601f01602080910402602001604051908101604052809291908181526020018280546104e890611ca4565b80156105355780601f1061050a57610100808354040283529160200191610535565b820191906000526020600020905b81548152906001019060200180831161051857829003601f168201915b5050505050905090565b60008061054a610b7b565b9050610557818585610b83565b600191505092915050565b6000600254905090565b600080610577610b7b565b9050610584858285610d4e565b61058f858585610dda565b60019150509392505050565b600060056000838152602001908152602001600020600101549050919050565b6105c48261059b565b6105d5816105d0610b7b565b61105b565b6105df83836110f8565b505050565b60006012905090565b6105f5610b7b565b73ffffffffffffffffffffffffffffffffffffffff168173ffffffffffffffffffffffffffffffffffffffff1614610662576040517f08c379a000000000000000000000000000000000000000000000000000000000815260040161065990611d48565b60405180910390fd5b61066c82826111d9565b5050565b60008061067b610b7b565b905061070f818585600160008673ffffffffffffffffffffffffffffffffffffffff1673ffffffffffffffffffffffffffffffffffffffff16815260200190815260200160002060008973ffffffffffffffffffffffffffffffffffffffff1673ffffffffffffffffffffffffffffffffffffffff1681526020019081526020016000205461070a9190611d97565b610b83565b600191505092915050565b6107447fa49807205ce4d355092ef5a8a18f56e8913cf4a201fbe287825b095693c21775336107d9565b610783576040517f08c379a000000000000000000000000000000000000000000000000000000000815260040161077a90611e39565b60405180910390fd5b61078d82826112bb565b5050565b60008060008373ffffffffffffffffffffffffffffffffffffffff1673ffffffffffffffffffffffffffffffffffffffff168152602001908152602001600020549050919050565b60006005600084815260200190815260200160002060000160008373ffffffffffffffffffffffffffffffffffffffff1673ffffffffffffffffffffffffffffffffffffffff16815260200190815260200160002060009054906101000a900460ff16905092915050565b60606004805461085390611ca4565b80601f016020809104026020016040519081016040528092919081815260200182805461087f90611ca4565b80156108cc5780601f106108a1576101008083540402835291602001916108cc565b820191906000526020600020905b8154815290600101906020018083116108af57829003601f168201915b5050505050905090565b6109007fa49807205ce4d355092ef5a8a18f56e8913cf4a201fbe287825b095693c21775336107d9565b61093f576040517f08c379a000000000000000000000000000000000000000000000000000000000815260040161093690611e39565b60405180910390fd5b610949828261141b565b5050565b6000801b81565b60008061095f610b7b565b90506000600160008373ffffffffffffffffffffffffffffffffffffffff1673ffffffffffffffffffffffffffffffffffffffff16815260200190815260200160002060008673ffffffffffffffffffffffffffffffffffffffff1673ffffffffffffffffffffffffffffffffffffffff16815260200190815260200160002054905083811015610a25576040517f08c379a0000000000000000000000000000000000000000000000000000000008152600401610a1c90611ecb565b60405180910390fd5b610a328286868403610b83565b60019250505092915050565b600080610a49610b7b565b9050610a56818585610dda565b600191505092915050565b610a6a8261059b565b610a7b81610a76610b7b565b61105b565b610a8583836111d9565b505050565b6000600160008473ffffffffffffffffffffffffffffffffffffffff1673ffffffffffffffffffffffffffffffffffffffff16815260200190815260200160002060008373ffffffffffffffffffffffffffffffffffffffff1673ffffffffffffffffffffffffffffffffffffffff16815260200190815260200160002054905092915050565b60007f01ffc9a7000000000000000000000000000000000000000000000000000000007bffffffffffffffffffffffffffffffffffffffffffffffffffffffff1916827bffffffffffffffffffffffffffffffffffffffffffffffffffffffff1916149050919050565b600033905090565b600073ffffffffffffffffffffffffffffffffffffffff168373ffffffffffffffffffffffffffffffffffffffff161415610bf3576040517f08c379a0000000000000000000000000000000000000000000000000000000008152600401610bea90611f5d565b60405180910390fd5b600073ffffffffffffffffffffffffffffffffffffffff168273ffffffffffffffffffffffffffffffffffffffff161415610c63576040517f08c379a0000000000000000000000000000000000000000000000000000000008152600401610c5a90611fef565b60405180910390fd5b80600160008573ffffffffffffffffffffffffffffffffffffffff1673ffffffffffffffffffffffffffffffffffffffff16815260200190815260200160002060008473ffffffffffffffffffffffffffffffffffffffff1673ffffffffffffffffffffffffffffffffffffffff168152602001908152602001600020819055508173ffffffffffffffffffffffffffffffffffffffff168373ffffffffffffffffffffffffffffffffffffffff167f8c5be1e5ebec7d5bd14f71427d1e84f3dd0314c0f7b2291e5b200ac8c7c3b92583604051610d419190611a96565b60405180910390a3505050565b6000610d5a8484610a8a565b90507fffffffffffffffffffffffffffffffffffffffffffffffffffffffffffffffff8114610dd45781811015610dc6576040517f08c379a0000000000000000000000000000000000000000000000000000000008152600401610dbd9061205b565b60405180910390fd5b610dd38484848403610b83565b5b50505050565b600073ffffffffffffffffffffffffffffffffffffffff168373ffffffffffffffffffffffffffffffffffffffff161415610e4a576040517f08c379a0000000000000000000000000000000000000000000000000000000008152600401610e41906120ed565b60405180910390fd5b600073ffffffffffffffffffffffffffffffffffffffff168273ffffffffffffffffffffffffffffffffffffffff161415610eba576040517f08c379a0000000000000000000000000000000000000000000000000000000008152600401610eb19061217f565b60405180910390fd5b610ec58383836115f2565b60008060008573ffffffffffffffffffffffffffffffffffffffff1673ffffffffffffffffffffffffffffffffffffffff16815260200190815260200160002054905081811015610f4b576040517f08c379a0000000000000000000000000000000000000000000000000000000008152600401610f4290612211565b60405180910390fd5b8181036000808673ffffffffffffffffffffffffffffffffffffffff1673ffffffffffffffffffffffffffffffffffffffff16815260200190815260200160002081905550816000808573ffffffffffffffffffffffffffffffffffffffff1673ffffffffffffffffffffffffffffffffffffffff1681526020019081526020016000206000828254610fde9190611d97565b925050819055508273ffffffffffffffffffffffffffffffffffffffff168473ffffffffffffffffffffffffffffffffffffffff167fddf252ad1be2c89b69c2b068fc378daa952ba7f163c4a11628f55a4df523b3ef846040516110429190611a96565b60405180910390a36110558484846115f7565b50505050565b61106582826107d9565b6110f45761108a8173ffffffffffffffffffffffffffffffffffffffff1660146115fc565b6110988360001c60206115fc565b6040516020016110a9929190612305565b6040516020818303038152906040526040517f08c379a00000000000000000000000000000000000000000000000000000000081526004016110eb9190611991565b60405180910390fd5b5050565b61110282826107d9565b6111d55760016005600084815260200190815260200160002060000160008373ffffffffffffffffffffffffffffffffffffffff1673ffffffffffffffffffffffffffffffffffffffff16815260200190815260200160002060006101000a81548160ff02191690831515021790555061117a610b7b565b73ffffffffffffffffffffffffffffffffffffffff168173ffffffffffffffffffffffffffffffffffffffff16837f2f8788117e7eff1d82e926ec794901d17c78024a50270940304540a733656f0d60405160405180910390a45b5050565b6111e382826107d9565b156112b75760006005600084815260200190815260200160002060000160008373ffffffffffffffffffffffffffffffffffffffff1673ffffffffffffffffffffffffffffffffffffffff16815260200190815260200160002060006101000a81548160ff02191690831515021790555061125c610b7b565b73ffffffffffffffffffffffffffffffffffffffff168173ffffffffffffffffffffffffffffffffffffffff16837ff6391f5c32d9c69d2a47ea670b442974b53935d1edc7fd64eb21e047a839171b60405160405180910390a45b5050565b600073ffffffffffffffffffffffffffffffffffffffff168273ffffffffffffffffffffffffffffffffffffffff16141561132b576040517f08c379a00000000000000000000000000000000000000000000000000000000081526004016113229061238b565b60405180910390fd5b611337600083836115f2565b80600260008282546113499190611d97565b92505081905550806000808473ffffffffffffffffffffffffffffffffffffffff1673ffffffffffffffffffffffffffffffffffffffff168152602001908152602001600020600082825461139e9190611d97565b925050819055508173ffffffffffffffffffffffffffffffffffffffff16600073ffffffffffffffffffffffffffffffffffffffff167fddf252ad1be2c89b69c2b068fc378daa952ba7f163c4a11628f55a4df523b3ef836040516114039190611a96565b60405180910390a3611417600083836115f7565b5050565b600073ffffffffffffffffffffffffffffffffffffffff168273ffffffffffffffffffffffffffffffffffffffff16141561148b576040517f08c379a00000000000000000000000000000000000000000000000000000000081526004016114829061241d565b60405180910390fd5b611497826000836115f2565b60008060008473ffffffffffffffffffffffffffffffffffffffff1673ffffffffffffffffffffffffffffffffffffffff1681526020019081526020016000205490508181101561151d576040517f08c379a0000000000000000000000000000000000000000000000000000000008152600401611514906124af565b60405180910390fd5b8181036000808573ffffffffffffffffffffffffffffffffffffffff1673ffffffffffffffffffffffffffffffffffffffff16815260200190815260200160002081905550816002600082825461157491906124cf565b92505081905550600073ffffffffffffffffffffffffffffffffffffffff168373ffffffffffffffffffffffffffffffffffffffff167fddf252ad1be2c89b69c2b068fc378daa952ba7f163c4a11628f55a4df523b3ef846040516115d99190611a96565b60405180910390a36115ed836000846115f7565b505050565b505050565b505050565b60606000600283600261160f9190612503565b6116199190611d97565b67ffffffffffffffff8111156116325761163161255d565b5b6040519080825280601f01601f1916602001820160405280156116645781602001600182028036833780820191505090505b5090507f30000000000000000000000000000000000000000000000000000000000000008160008151811061169c5761169b61258c565b5b60200101907effffffffffffffffffffffffffffffffffffffffffffffffffffffffffffff1916908160001a9053507f780000000000000000000000000000000000000000000000000000000000000081600181518110611700576116ff61258c565b5b60200101907effffffffffffffffffffffffffffffffffffffffffffffffffffffffffffff1916908160001a905350600060018460026117409190612503565b61174a9190611d97565b90505b60018111156117ea577f3031323334353637383961626364656600000000000000000000000000000000600f86166010811061178c5761178b61258c565b5b1a60f81b8282815181106117a3576117a261258c565b5b60200101907effffffffffffffffffffffffffffffffffffffffffffffffffffffffffffff1916908160001a905350600485901c9450806117e3906125bb565b905061174d565b506000841461182e576040517f08c379a000000000000000000000000000000000000000000000000000000000815260040161182590612631565b60405180910390fd5b8091505092915050565b600080fd5b60007fffffffff0000000000000000000000000000000000000000000000000000000082169050919050565b6118728161183d565b811461187d57600080fd5b50565b60008135905061188f81611869565b92915050565b6000602082840312156118ab576118aa611838565b5b60006118b984828501611880565b91505092915050565b60008115159050919050565b6118d7816118c2565b82525050565b60006020820190506118f260008301846118ce565b92915050565b600081519050919050565b600082825260208201905092915050565b60005b83811015611932578082015181840152602081019050611917565b83811115611941576000848401525b50505050565b6000601f19601f8301169050919050565b6000611963826118f8565b61196d8185611903565b935061197d818560208601611914565b61198681611947565b840191505092915050565b600060208201905081810360008301526119ab8184611958565b905092915050565b600073ffffffffffffffffffffffffffffffffffffffff82169050919050565b60006119de826119b3565b9050919050565b6119ee816119d3565b81146119f957600080fd5b50565b600081359050611a0b816119e5565b92915050565b6000819050919050565b611a2481611a11565b8114611a2f57600080fd5b50565b600081359050611a4181611a1b565b92915050565b60008060408385031215611a5e57611a5d611838565b5b6000611a6c858286016119fc565b9250506020611a7d85828601611a32565b9150509250929050565b611a9081611a11565b82525050565b6000602082019050611aab6000830184611a87565b92915050565b600080600060608486031215611aca57611ac9611838565b5b6000611ad8868287016119fc565b9350506020611ae9868287016119fc565b9250506040611afa86828701611a32565b9150509250925092565b6000819050919050565b611b1781611b04565b8114611b2257600080fd5b50565b600081359050611b3481611b0e565b92915050565b600060208284031215611b5057611b4f611838565b5b6000611b5e84828501611b25565b91505092915050565b611b7081611b04565b82525050565b6000602082019050611b8b6000830184611b67565b92915050565b60008060408385031215611ba857611ba7611838565b5b6000611bb685828601611b25565b9250506020611bc7858286016119fc565b9150509250929050565b600060ff82169050919050565b611be781611bd1565b82525050565b6000602082019050611c026000830184611bde565b92915050565b600060208284031215611c1e57611c1d611838565b5b6000611c2c848285016119fc565b91505092915050565b60008060408385031215611c4c57611c4b611838565b5b6000611c5a858286016119fc565b9250506020611c6b858286016119fc565b9150509250929050565b7f4e487b7100000000000000000000000000000000000000000000000000000000600052602260045260246000fd5b60006002820490506001821680611cbc57607f821691505b60208210811415611cd057611ccf611c75565b5b50919050565b7f416363657373436f6e74726f6c3a2063616e206f6e6c792072656e6f756e636560008201527f20726f6c657320666f722073656c660000000000000000000000000000000000602082015250565b6000611d32602f83611903565b9150611d3d82611cd6565b604082019050919050565b60006020820190508181036000830152611d6181611d25565b9050919050565b7f4e487b7100000000000000000000000000000000000000000000000000000000600052601160045260246000fd5b6000611da282611a11565b9150611dad83611a11565b9250827fffffffffffffffffffffffffffffffffffffffffffffffffffffffffffffffff03821115611de257611de1611d68565b5b828201905092915050565b7f43616c6c6572206973206e6f7420612061646d696e0000000000000000000000600082015250565b6000611e23601583611903565b9150611e2e82611ded565b602082019050919050565b60006020820190508181036000830152611e5281611e16565b9050919050565b7f45524332303a2064656372656173656420616c6c6f77616e63652062656c6f7760008201527f207a65726f000000000000000000000000000000000000000000000000000000602082015250565b6000611eb5602583611903565b9150611ec082611e59565b604082019050919050565b60006020820190508181036000830152611ee481611ea8565b9050919050565b7f45524332303a20617070726f76652066726f6d20746865207a65726f2061646460008201527f7265737300000000000000000000000000000000000000000000000000000000602082015250565b6000611f47602483611903565b9150611f5282611eeb565b604082019050919050565b60006020820190508181036000830152611f7681611f3a565b9050919050565b7f45524332303a20617070726f766520746f20746865207a65726f20616464726560008201527f7373000000000000000000000000000000000000000000000000000000000000602082015250565b6000611fd9602283611903565b9150611fe482611f7d565b604082019050919050565b6000602082019050818103600083015261200881611fcc565b9050919050565b7f45524332303a20696e73756666696369656e7420616c6c6f77616e6365000000600082015250565b6000612045601d83611903565b91506120508261200f565b602082019050919050565b6000602082019050818103600083015261207481612038565b9050919050565b7f45524332303a207472616e736665722066726f6d20746865207a65726f20616460008201527f6472657373000000000000000000000000000000000000000000000000000000602082015250565b60006120d7602583611903565b91506120e28261207b565b604082019050919050565b60006020820190508181036000830152612106816120ca565b9050919050565b7f45524332303a207472616e7366657220746f20746865207a65726f206164647260008201527f6573730000000000000000000000000000000000000000000000000000000000602082015250565b6000612169602383611903565b91506121748261210d565b604082019050919050565b600060208201905081810360008301526121988161215c565b9050919050565b7f45524332303a207472616e7366657220616d6f756e742065786365656473206260008201527f616c616e63650000000000000000000000000000000000000000000000000000602082015250565b60006121fb602683611903565b91506122068261219f565b604082019050919050565b6000602082019050818103600083015261222a816121ee565b9050919050565b600081905092915050565b7f416363657373436f6e74726f6c3a206163636f756e7420000000000000000000600082015250565b6000612272601783612231565b915061227d8261223c565b601782019050919050565b6000612293826118f8565b61229d8185612231565b93506122ad818560208601611914565b80840191505092915050565b7f206973206d697373696e6720726f6c6520000000000000000000000000000000600082015250565b60006122ef601183612231565b91506122fa826122b9565b601182019050919050565b600061231082612265565b915061231c8285612288565b9150612327826122e2565b91506123338284612288565b91508190509392505050565b7f45524332303a206d696e7420746f20746865207a65726f206164647265737300600082015250565b6000612375601f83611903565b91506123808261233f565b602082019050919050565b600060208201905081810360008301526123a481612368565b9050919050565b7f45524332303a206275726e2066726f6d20746865207a65726f2061646472657360008201527f7300000000000000000000000000000000000000000000000000000000000000602082015250565b6000612407602183611903565b9150612412826123ab565b604082019050919050565b60006020820190508181036000830152612436816123fa565b9050919050565b7f45524332303a206275726e20616d6f756e7420657863656564732062616c616e60008201527f6365000000000000000000000000000000000000000000000000000000000000602082015250565b6000612499602283611903565b91506124a48261243d565b604082019050919050565b600060208201905081810360008301526124c88161248c565b9050919050565b60006124da82611a11565b91506124e583611a11565b9250828210156124f8576124f7611d68565b5b828203905092915050565b600061250e82611a11565b915061251983611a11565b9250817fffffffffffffffffffffffffffffffffffffffffffffffffffffffffffffffff048311821515161561255257612551611d68565b5b828202905092915050565b7f4e487b7100000000000000000000000000000000000000000000000000000000600052604160045260246000fd5b7f4e487b7100000000000000000000000000000000000000000000000000000000600052603260045260246000fd5b60006125c682611a11565b915060008214156125da576125d9611d68565b5b600182039050919050565b7f537472696e67733a20686578206c656e67746820696e73756666696369656e74600082015250565b600061261b602083611903565b9150612626826125e5565b602082019050919050565b6000602082019050818103600083015261264a8161260e565b905091905056fea26469706673582212204668b9cbf2d43f59594e5c426d81e7d842f7e0ce06c41b84beaccd82ce737cd864736f6c634300080b0033",
  "immutableReferences": {},
  "source": "// SPDX-License-Identifier: MIT\npragma solidity >=0.6.8 <0.9.0;\n\nimport \"@openzeppelin/contracts/token/ERC20/ERC20.sol\";\nimport \"@openzeppelin/contracts/access/AccessControl.sol\";\n\ncontract HyToken is ERC20, AccessControl {\n  bytes32 private constant ADMIN_ROLE = keccak256(\"ADMIN_ROLE\");\n\n  constructor() ERC20(\"HyToken\", \"HYT\") {\n    _setupRole(ADMIN_ROLE, msg.sender);\n  }\n\n  function mint(address _account, uint256 _amount) external {\n    require(hasRole(ADMIN_ROLE, msg.sender), \"Caller is not a admin\");\n    _mint(_account, _amount);\n  }\n\n  function burn(address _account, uint256 _amount) external {\n    require(hasRole(ADMIN_ROLE, msg.sender), \"Caller is not a admin\");\n    _burn(_account, _amount);\n  }\n}\n",
  "sourcePath": "/Users/hiroki.yasui/go/src/github.com/hiromaily/go-crypto-wallet/web/erc20-token/contracts/HyToken.sol",
  "compiler": {
    "name": "solc",
    "version": "0.8.11+commit.d7f03943.Emscripten.clang"
  },
  "schemaVersion": "3.4.1",
  "updatedAt": "2022-02-10T15:00:31.539Z",
  "devdoc": {
    "kind": "dev",
    "methods": {
      "allowance(address,address)": {
        "details": "See {IERC20-allowance}."
      },
      "approve(address,uint256)": {
        "details": "See {IERC20-approve}. NOTE: If `amount` is the maximum `uint256`, the allowance is not updated on `transferFrom`. This is semantically equivalent to an infinite approval. Requirements: - `spender` cannot be the zero address."
      },
      "balanceOf(address)": {
        "details": "See {IERC20-balanceOf}."
      },
      "decimals()": {
        "details": "Returns the number of decimals used to get its user representation. For example, if `decimals` equals `2`, a balance of `505` tokens should be displayed to a user as `5.05` (`505 / 10 ** 2`). Tokens usually opt for a value of 18, imitating the relationship between Ether and Wei. This is the value {ERC20} uses, unless this function is overridden; NOTE: This information is only used for _display_ purposes: it in no way affects any of the arithmetic of the contract, including {IERC20-balanceOf} and {IERC20-transfer}."
      },
      "decreaseAllowance(address,uint256)": {
        "details": "Atomically decreases the allowance granted to `spender` by the caller. This is an alternative to {approve} that can be used as a mitigation for problems described in {IERC20-approve}. Emits an {Approval} event indicating the updated allowance. Requirements: - `spender` cannot be the zero address. - `spender` must have allowance for the caller of at least `subtractedValue`."
      },
      "getRoleAdmin(bytes32)": {
        "details": "Returns the admin role that controls `role`. See {grantRole} and {revokeRole}. To change a role's admin, use {_setRoleAdmin}."
      },
      "grantRole(bytes32,address)": {
        "details": "Grants `role` to `account`. If `account` had not been already granted `role`, emits a {RoleGranted} event. Requirements: - the caller must have ``role``'s admin role."
      },
      "hasRole(bytes32,address)": {
        "details": "Returns `true` if `account` has been granted `role`."
      },
      "increaseAllowance(address,uint256)": {
        "details": "Atomically increases the allowance granted to `spender` by the caller. This is an alternative to {approve} that can be used as a mitigation for problems described in {IERC20-approve}. Emits an {Approval} event indicating the updated allowance. Requirements: - `spender` cannot be the zero address."
      },
      "name()": {
        "details": "Returns the name of the token."
      },
      "renounceRole(bytes32,address)": {
        "details": "Revokes `role` from the calling account. Roles are often managed via {grantRole} and {revokeRole}: this function's purpose is to provide a mechanism for accounts to lose their privileges if they are compromised (such as when a trusted device is misplaced). If the calling account had been revoked `role`, emits a {RoleRevoked} event. Requirements: - the caller must be `account`."
      },
      "revokeRole(bytes32,address)": {
        "details": "Revokes `role` from `account`. If `account` had been granted `role`, emits a {RoleRevoked} event. Requirements: - the caller must have ``role``'s admin role."
      },
      "supportsInterface(bytes4)": {
        "details": "See {IERC165-supportsInterface}."
      },
      "symbol()": {
        "details": "Returns the symbol of the token, usually a shorter version of the name."
      },
      "totalSupply()": {
        "details": "See {IERC20-totalSupply}."
      },
      "transfer(address,uint256)": {
        "details": "See {IERC20-transfer}. Requirements: - `to` cannot be the zero address. - the caller must have a balance of at least `amount`."
      },
      "transferFrom(address,address,uint256)": {
        "details": "See {IERC20-transferFrom}. Emits an {Approval} event indicating the updated allowance. This is not required by the EIP. See the note at the beginning of {ERC20}. NOTE: Does not update the allowance if the current allowance is the maximum `uint256`. Requirements: - `from` and `to` cannot be the zero address. - `from` must have a balance of at least `amount`. - the caller must have allowance for ``from``'s tokens of at least `amount`."
      }
    },
    "version": 1
  },
  "userdoc": {
    "kind": "user",
    "methods": {},
    "version": 1
  }
}